:100000000C9434000C9451000C9451000C94510049
:100010000C9451000C9451000C9451000C9451001C
:100020000C9451000C9451000C9451000C94250632
:100030000C9451000C9451000C9451000C945100FC
:100040000C9451000C9451000C9451000C945100EC
:100050000C94510099009B00AC00AE00B500B700B5
:10006000C300C500CC00CE0011241FBECFE5D8E0F0
:10007000DEBFCDBF10E0A0E6B0E0E2EEFDE002C0E2
:1000800005900D92AE3AB107D9F720E0AEEAB0E0A4
:1000900001C01D92A93BB207E1F70E943A050C94FA
:1000A000EF060C94000041E060E081E00E94500106
:1000B00041E061E081E00E94500141E062E081E0C6
:1000C0000E94500141E064E081E00E94500141E063
:1000D00063E080E00E94500141E062E080E00E9425
:1000E000500141E065E081E00E94500141E066E09E
:1000F00081E00E94500141E063E080E00E94E50160
:1001000041E062E080E00E94E50141E065E081E0DD
:100110000E94E50141E066E081E00C94E50190E099
:100120008A30910508F04EC0FC01E65DFF4F0C944B
:10013000A90640E001C041E060E081E00E94E501E5
:1001400040E061E081E00E94E50140E062E081E0A2
:100150000E94E50140E032C040E001C041E060E0C3
:1001600081E00E94E50141E0ECCF40E001C041E0C8
:1001700060E081E00E94E50140E061E081E00E94F2
:10018000E50141E0E3CF40E001C041E060E081E013
:100190000E94E50141E0F1CF40E001C041E060E0B4
:1001A00081E00E94E50140E061E081E00E94E5011C
:1001B00040E062E081E00E94E50141E064E081E02E
:1001C0000E94E5018FE99FE00197F1F700C0000070
:1001D0000895813049F028F0823051F0833069F081
:1001E0000895DB98DA9A02C0DB9ADA98C59A03C0C0
:1001F000DB9ADA9AC598C69A0895DB9ADA9AC59A74
:10020000C698089541E066E082E00C94E50141E083
:1002100066E082E00E94500140E066E082E00C94DB
:10022000E50181110C94020140E066E082E00C944B
:10023000E50166E082E00C9463020E9402012FEF68
:1002400081EE94E0215080409040E1F700C0000032
:1002500080E00C9411010E9402012FEF8AE693E0E6
:10026000215080409040E1F700C0000080E00E94F3
:1002700011012FE785EB91E0215080409040E1F79C
:1002800000C000000E9402012FEF8AE693E0215097
:1002900080409040E1F700C0000080E00C94110124
:1002A000442379F1413009F05FC0813079F028F0C2
:1002B0008230A9F08330E1F008952AB381E090E024
:1002C00001C0880F6A95EAF7822B2CC027B381E022
:1002D00090E001C0880F6A95EAF7822B2EC024B304
:1002E00081E090E001C0880F6A95EAF7822B30C068
:1002F00021B381E090E001C0880F6A95EAF7822B74
:1003000032C0813089F028F08230C9F0833011F199
:1003100008952AB381E090E001C0880F6A95EAF75A
:10032000809582238ABB089527B381E090E001C0C5
:10033000880F6A95EAF78095822387BB089524B3D6
:1003400081E090E001C0880F6A95EAF780958223EA
:1003500084BB089521B381E090E001C0880F6A95C5
:10036000EAF78095822381BB0895813081F028F0DF
:100370008230B9F08330F9F008952BB381E090E03A
:1003800001C0880F6A95EAF7822B8BBB089528B3CA
:1003900081E090E001C0880F6A95EAF7822B88BB64
:1003A000089525B381E090E001C0880F6A95EAF7CF
:1003B000822B85BB089522B381E090E001C0880FB5
:1003C0006A95EAF7822B82BB0895442379F1413084
:1003D00009F05FC0813079F028F08230A9F08330D5
:1003E000E1F008952BB381E090E001C0880F6A9599
:1003F000EAF7822B2CC028B381E090E001C0880F7F
:100400006A95EAF7822B2EC025B381E090E001C007
:10041000880F6A95EAF7822B30C022B381E090E022
:1004200001C0880F6A95EAF7822B32C0813089F0CB
:1004300028F08230C9F0833011F108952BB381E0A8
:1004400090E001C0880F6A95EAF7809582238BBB04
:10045000089528B381E090E001C0880F6A95EAF71B
:100460008095822388BB089525B381E090E001C088
:10047000880F6A95EAF78095822385BB089522B399
:1004800081E090E001C0880F6A95EAF780958223A9
:1004900082BB0895FA01813041F028F0823039F0B2
:1004A000833039F0089589B305C086B303C083B3A0
:1004B00001C080B390E002C0959587956A95E2F7F8
:1004C000817080830895813081F028F08230B9F006
:1004D0008330F9F008952BB381E090E001C0880FDC
:1004E0006A95EAF782278BBB089528B381E090E0F4
:1004F00001C0880F6A95EAF7822788BB089525B363
:1005000081E090E001C0880F6A95EAF7822785BBF9
:10051000089522B381E090E001C0880F6A95EAF760
:10052000822782BB089541E067E083E00E9450018A
:1005300041E066E083E00E94500141E065E083E035
:100540000E94500141E063E083E00E94500140E0DE
:1005500065E082E00E94500140E064E082E00E9499
:10056000500140E063E082E00E94500140E062E020
:1005700082E00E94500165E082E00E94B50164E0E3
:1005800082E00E94B50163E082E00E94B50162E072
:1005900082E00E94B50141E067E083E00E94E5014E
:1005A00041E066E083E00E94E50141E065E083E030
:1005B0000E94E50141E063E083E00C94E501AF9225
:1005C000BF92CF92DF92EF92FF920F931F93CF9340
:1005D000DF931F92CDB7DEB71982C12CD12CA12C8D
:1005E000B12C17E01430E9F1133011F4AA24A394CC
:1005F00040E0612F83E00E94E501760127E0E21AE6
:10060000F108C7018A199109FC01EB59FF4F7F01DD
:1006100005E0AE014F5F5F4F602F82E00E944A020B
:100620008981811113C0F701B7808981811108C0C8
:10063000AE014F5F5F4F602F82E00E944A02F5CF0C
:100640008FE39CE90197F1F700C00000015094E0AE
:10065000E90EF11C0130E9F641E0612F83E00E94D0
:10066000E5011150EFEFCE1ADE0A123009F0BACFD1
:100670008B2D0F90DF91CF911F910F91FF90EF90F5
:10068000DF90CF90BF90AF900895CF93C82F40E0F8
:1006900063E080E00E94E50140E062E080E00E94CB
:1006A000E5018C2F82958F70982F97708C2F8695EF
:1006B000869586958071892B88BB41E062E080E059
:1006C0000E94E50185E08A95F1F7000040E062E0D4
:1006D00080E00E94E50195E09A95F1F700008C2FEB
:1006E000880F8071C770C82BC8BB41E062E080E012
:1006F0000E94E50185E08A95F1F7000040E062E0A4
:1007000080E00E94E50195E09A95F1F7000087EC02
:1007100090E00197F1F700C00000CF910895CF93CA
:10072000C82F41E063E080E00E94E50140E062E024
:1007300080E00E94E5018C2F82958F70982F977032
:100740008C2F8695869586958071892B88BB41E094
:1007500062E080E00E94E50185E08A95F1F7000003
:1007600040E062E080E00E94E50195E09A95F1F7B3
:1007700000008C2F880F8071C770C82BC8BB41E068
:1007800062E080E00E94E50185E08A95F1F70000D3
:1007900040E062E080E00E94E50195E09A95F1F783
:1007A000000087EC90E00197F1F700C00000CF91C6
:1007B00008950F931F93CF93DF9300D000D0CDB750
:1007C000DEB70091610010916200209163003091CA
:1007D000640009831A832B833C83FE01E80FF11D1B
:1007E0008181860F0F900F900F900F90DF91CF9126
:1007F0001F910F910C944503CF93DF93EC018991E6
:10080000882319F00E948F03FACFDF91CF910895CA
:1008100081E00E9445038FE39CE90197F1F700C056
:1008200000000895811104C0809160008B7F05C095
:10083000813029F480916000846080936000809111
:1008400060000C944503811104C0809160008D7F8D
:1008500011C0813021F48091600082600BC0823031
:1008600021F480916000816005C0833029F480917B
:1008700060008E7F80936000809160000C9445033F
:100880008BB38C608BBB8AB38C608ABB88B3876167
:1008900088BB87B3876187BB41E063E080E00E944B
:1008A000500141E062E080E00E94500141E060E0E0
:1008B00081E00E94500141E061E081E00E9450012E
:1008C00041E062E081E00E94500141E064E081E0AB
:1008D0000E94500182E00E94450388E20E94450385
:1008E00080E00E94230483E00E94230481E00E94B0
:1008F000120486E00E9445030C9408048F929F9294
:10090000AF92BF92CF92DF92EF92FF920F931F931D
:10091000CF93DF93CDB7DEB72F970FB6F894DEBF36
:100920000FBECDBF8C015B014A01FC01019000208C
:10093000E9F76C0180E090E07F01E01AF10A96018E
:10094000201B310B2E153F05A8F5F60121916F01F3
:1009500030ED320F3A3048F4E1E0F0E0EC0FFD1FEB
:10096000E80FF91F20830196EACF2A3379F4009724
:1009700031F3E1E0F0E0EC0FFD1FE80FF91F10820A
:10098000CE0101960E94C906F50110C02111D7CFF2
:100990000097A9F2E1E0F0E0EC0FFD1FE80FF91F6E
:1009A0001082CE0101960E94C906F401808380E086
:1009B00090E0C5CF2F960FB6F894DEBF0FBECDBF27
:1009C000DF91CF911F910F91FF90EF90DF90CF902B
:1009D000BF90AF909F908F900895EF92FF920F93EA
:1009E0001F93CF93DF938C01C0E0E12CF12C0E9488
:1009F000DF02D82F8823D9F30E941D01DD3359F07F
:100A0000D33629F08C2F90E0DA33D1F40BC00E945A
:100A10000804C0E021C081E0F80190819923E9F049
:100A200080E01BC0E11018C0F801E80FF91FD08367
:100A30008AE30E948F03CF5FF12CEE24E3940CC075
:100A4000F2E0FF1649F0F801E80FF91FD0838D2F6F
:100A50000E948F03CF5FF39481E0F801EC0FF11D4A
:100A600010828111C4CFDF91CF911F910F91FF9020
:100A7000EF900895CF93DF9300D000D01F92CDB7B1
:100A8000DEB70E9407010E9493020E944004D49A9C
:100A9000D69ABF9A0E942B0163E081E00E94D9039D
:100AA00085E790E00E94FC032FEF8BE792E921504D
:100AB00080409040E1F700C000000E94080463E01D
:100AC00080E00E94D90383E890E00E94FC0365E087
:100AD00081E00E94D90382E990E00E94FC0367E074
:100AE00083E00E94D903C79ACE0101960E94ED04CB
:100AF00047EB50E063EB70E0CE0101960E947E046C
:100B0000C7980E940804DC9A63E080E00E94D90341
:100B10008CE990E00E94FC0365E081E00E94D9032B
:100B200082E990E00E94FC0367E083E00E94D90321
:100B3000CE0101960E94ED0448EB50E066EB70E0B8
:100B4000CE0101960E947E04DC980E9408040E9457
:100B5000640668EE73E080E090E00E9474060E94F4
:100B600071060E9453008091B3008093B50080917C
:100B7000B7008093B400C79A1AE083E00E94E900AE
:100B80008091B500612F0E949D060E948F0082E037
:100B90000E94E9008091B500612F0E949D06892F77
:100BA0000E948F0081E00E94E9008091B400612FD3
:100BB0000E949D060E948F0080E00E94E9008091C3
:100BC000B400612F0E949D06892F0E948F00D5CF0F
:100BD0008091B5009091B400811123C0911121C082
:100BE0008091B00081110EC081E08093B0008091AF
:100BF000B6008093B5008091B8008093B400C79888
:100C0000DC9A0895813001F51092B0008091B30014
:100C10008093B5008091B7008093B400DC98C79AA8
:100C20000895911107C081508093B5008CE38093A3
:100C3000B4000895811108C0953030F49BB380E46E
:100C400089278BBB0C94190108951F920F920FB640
:100C50000F9211242F933F934F935F936F937F9342
:100C60008F939F93AF93BF93EF93FF938091AE00C9
:100C70009091AF0001969093AF008093AE002091C9
:100C8000B20030E08217930771F48091B400815074
:100C90008093B4000E94E8051092AF001092AE005D
:100CA0008091B10082BFFF91EF91BF91AF919F9171
:100CB0008F917F916F915F914F913F912F910F9005
:100CC0000FBE0F901F90189583B7806483BF83B7C2
:100CD000886083BF89B7816089BF8FB780688FBF05
:100CE000089585E083BF08950F931F939B01AC0186
:100CF000A8EEB3E00E94AF068B019C0146E036955A
:100D00002795179507954A95D1F7202F2195209380
:100D1000B100AB01BC01EEE076956795579547951C
:100D2000EA95D1F74093B20022BF8091B2008F5F65
:100D30008093B2001F910F910895991B79E004C030
:100D4000991F961708F0961B881F7A95C9F780950A
:100D50000895EE0FFF1F0590F491E02D09940E9475
:100D6000BA06A59F900DB49F900DA49F800D911D74
:100D700011240895A29FB001B39FC001A39F700DDD
:100D8000811D1124911DB29F700D811D1124911D93
:100D90000895FC0188279927E89421912032E9F3EE
:100DA000293010F02E30C8F32B3241F02D3239F4B7
:100DB000689404C00E94E706820F911D2191205380
:100DC0002A30C0F31EF4909581959F4F08957AE0E4
:100DD000979F902D879F802D910D11240895F89451
:020DE000FFCF43
:100DE2000880C094D43738393A3435363A31323300
:100DF2003A63303D3A54726166666963206C696792
:100E0200687400456E746572205265642054696D81
:100E12006500652E67206D6D3A737300456E7465CB
:0E0E22007220477265656E2054696D65000090
:00000001FF
